S018000046696E616C2041737369676E6D656E742E73726563E9
S11300000C9435000C945D000C945D000C945D0020
S11300100C945D000C945D000C945D000C945D00E8
S11300200C945D000C945D000C945D000C945D00D8
S11300300C945D000C945D000C945D000C945D00C8
S11300400C945D000C945D000C94C2020C945D0051
S11300500C945D000C945D000C945D000C945D00A8
S11300600C945D000C945D00C70311241FBECFEFF8
S1130070D8E0DEBFCDBF21E0A6E0B1E001C01D9213
S1130080A731B207E1F711E0A0E0B1E0E6E1FEE05C
S113009002C005900D92A630B107D9F710E0C5E370
S11300A0D0E004C02197FE010E94DB05C433D107D0
S11300B0C9F70E94BC020C9409070C9400001F931A
S11300C0CF93DF93EC010E949102188219821B8264
S11300D01A821C821E821D8218861F8285E090E08F
S11300E00E94CC03FC0111821082138212821482BA
S11300F098878F8311E0188382E090E00E94CC03FC
S11301009B838A83FC01118210821983EF81F88515
S113011084E690E091838083138212821482DF91BB
S1130120CF911F9108950F931F93CF93DF938C0169
S11301300E949E026BE9C8010E94A80261E0C80106
S11301400E94B002C82FD0E0DC2FCC2760E0C801A9
S11301500E94B002C82BC8010E94A402CE01DF9104
S1130160CF911F910F9108950F931F93CF93DF9316
S1130170EC018B010E949E0260E9CE010E94A8025C
S113018060E0CE010E94A802B80176956795769545
S11301906795CE010E94A802602F6295660F660FD4
S11301A0607CCE010E94A802CE010E94A402DF91CD
S11301B0CF911F910F9108954F925F926F927F920A
S11301C08F929F92AF92BF92CF92DF92EF92FF9263
S11301D00F931F93CF93DF931F92CDB7DEB77C01AC
S11301E0CE0101960E949102C7010E949300D7019B
S11301F011962C9130E0A9014150510914161506AD
S113020004F540E050E0D7011296ED91FC9113976C
S1130210241B350B21503048220F331FE20FF31FEC
S1130220DF0112972D913C91318320834F5F5F4F03
S1130230F701218130E0B901615071094617570770
S113024014F3D7011296ED91FC9113978083918357
S1130250E0ECF0E0908195FFFDCF8093C600F701BC
S11302608080882009F45BC0C780D084912CC401AD
S1130270880F991F880F991F880E991E8C0C9D1C3E
S113028000E010E0D601AD90BC90119712968C91CD
S1130290129714969C91992321F0F70125813681B8
S11302A005C0D70112962D913C9113978195E82FA3
S11302B0F0E0EE0FFF1FE20FF31F6081718180E019
S11302C090E00E94E0042B013C01B501BB0C880BBB
S11302D0990B0E94E20420E030E048EC52E40E94D2
S11302E03F049B01AC01C301B2010E946E052B01C6
S11302F03C01B80180E090E00E94E0049B01AC0165
S1130300C301B2010E94D3030E94B1048B01B5E082
S1130310CB0ED11CC814D90409F0B4CF02C000E03C
S113032010E0B801C7010E94B400F701848190E095
S11303309C01215031091216130604F520E030E027
S1130340D7011596ED91FC911697821B930B815062
S11303509048880F991FE80FF91FDF0112978D91BC
S11303609C91918380832F5F3F4FF701848190E0BC
S1130370AC01415051092417350714F3D7011596E0
S1130380ED91FC911697118300830F90DF91CF912B
S11303901F910F91FF90EF90DF90CF90BF90AF909F
S11303A09F908F907F906F905F904F900895EF9201
S11303B0FF920F931F93CF93DF938C017B01C42F84
S11303C0DC0117968D919C911897009739F065E0A0
S11303D070E00E94CF03F80110861782D8011296AC
S11303E08D919C911397009739F062E070E00E9420
S11303F0CF03F80113821282D80111961C9211972F
S113040015968D919C911697009739F062E070E0F3
S11304100E94CF03F80116821582D80114961C920B
S11304201497CC931896FC92EE921797CC2309F468
S113043040C0F7014C2F50E0EA01CC0FDD1FCC0F78
S1130440DD1FC40FD51FB7016C0F7D1F22E030E004
S11304508481811106C082819381821793070CF4F1
S11304609C0135966E177F0799F736C084818823DF
S113047031F082819381821793070CF49C013596A5
S1130480EC17FD0799F781E0821BF801848390E063
S1130490880F991F0E94CC03D80116969C938E93C3
S11304A0159714964C9150E060E070E00E940207AA
S11304B031C0CFEFF801C1838EEF91E00E94CC03ED
S11304C0D80113969C938E931297FC011192CA95AE
S11304D0E9F722E030E0D7CF81E0E82EE21AD80134
S11304E01196EC92F12CC701880F991F0E94CC033E
S11304F0F80193838283A70160E070E00E94020701
S1130500D8011796ED91FC911897CE0FDF1F22E0CA
S113051030E0ACCFDF91CF911F910F91FF90EF901E
S1130520089588E48093B80084E08093BC00089523
S1130530ECEBF0E080818823ECF7089524EA209323
S1130540BC000E949802089584E98093BC00089539
S11305506093BB0024E82093BC000E949802089595
S113056020E4629FB001112464686093BC000E947F
S113057098028091BB00089578948AE091E00E94EB
S1130580DC00FBCF1F920F920FB60F921124AF9293
S1130590BF92CF92DF92EF92FF920F931F932F930C
S11305A03F934F935F936F937F938F939F93AF93F7
S11305B0BF93CF93DF93EF93FF931091C600C09145
S11305C00701C11120C08091080190910901009791
S11305D041F061E070E00E94CF0310920901109293
S11305E0080110930701812F90E09C01220F331F13
S11305F0220F331F820F931F0E94CC039093090193
S1130600809308011AC020910601822F90E0D0E067
S1130610AE01440F551F440F551F4C0F5D1F841727
S11306209507E1F040910801509109012F5F209353
S11306300601FA01E80FF91F1083C0910701D0E009
S1130640CE01880F991F880F991F8C0F9D1F209131
S1130650060130E02817390709F07EC00E94CC0358
S1130660209779F460910701262F30E0B901660FD5
S1130670771F660F771F620F731F61157105A9F449
S113068055C0FC019E01220F331F220F331FC20FDE
S1130690D31FC80FD91F11821082138212821482B1
S11306A03596CE17DF07B9F7DDCFC0910801D09199
S11306B00901A0E0B0E010E0D12C01E0F12CAE0182
S11306C04A0F5B1FFA01228130E0322F2227E38098
S11306D02E29E02E4481411101C0EF2C41E04D0D43
S11306E0ED2DF0E06F01CC0CDD1CCC0CDD1CEC0D11
S11306F0FD1DE80FF91F6E01CA0EDB1ED6015C91C9
S1130700A52FB0E0BA2EAA24D60111965C91D5018A
S1130710A52BB183A08333832283E4821B5FA12FA3
S1130720B0E0D42EA617B70750F201C040E0BC01D8
S11307308AE091E00E94D70110920701109206010D
S113074061E070E080910801909109010E94CF035B
S11307501092090110920801FF91EF91DF91CF915E
S1130760BF91AF919F918F917F916F915F914F91C5
S11307703F912F911F910F91FF90EF90DF90CF90B9
S1130780BF90AF900F900FBE0F901F9018958AE006
S113079091E00E945F0008950E94E10508950E947F
S11307A0790608955058BB27AA270E94EA030C949F
S11307B034050E94260538F00E942D0520F039F4F6
S11307C09F3F19F426F40C9423050EF4E095E7FBFF
S11307D00C941D05E92F0E94450558F3BA176207CA
S11307E073078407950720F079F4A6F50C94670540
S11307F00EF4E0950B2EBA2FA02D0B01B901900138
S11308000C01CA01A0011124FF27591B99F0593F7B
S113081050F4503E68F11A16F040A22F232F342FC3
S11308204427585FF3CF469537952795A795F04011
S11308305395C9F77EF41F16BA0B620B730B840B26
S1130840BAF09150A1F0FF0FBB1F661F771F881FDE
S1130850C2F70EC0BA0F621F731F841F48F4879536
S113086077956795B795F7959E3F08F0B0CF939528
S1130870880F08F09927EE0F9795879508950E94A1
S113088053040C9434050E942D0558F00E9426054B
S113089040F029F45F3F29F00C941D0551110C948C
S11308A068050C9423050E94450568F39923B1F368
S11308B0552391F3951B550BBB27AA276217730782
S11308C0840738F09F5F5F4F220F331F441FAA1F16
S11308D0A9F335D00E2E3AF0E0E832D091505040D2
S11308E0E695001CCAF72BD0FE2F29D0660F771F80
S11308F0881FBB1F261737074807AB07B0E809F066
S1130900BB0B802DBF01FF2793585F4F3AF09E3FEA
S1130910510578F00C941D050C9468055F3FE4F3D1
S1130920983ED4F3869577956795B795F7959F5F2D
S1130930C9F7880F911D9695879597F90895E1E079
S1130940660F771F881FBB1F621773078407BA07D8
S113095020F0621B730B840BBA0BEE1F88F7E09533
S113096008950E944D0588F09F5798F0B92F992754
S1130970B751B0F0E1F0660F771F881F991F1AF086
S1130980BA95C9F714C0B13091F00E946705B1E07F
S113099008950C946705672F782F8827B85F39F07E
S11309A0B93FCCF3869577956795B395D9F73EF41F
S11309B090958095709561957F4F8F4F9F4F0895C7
S11309C0E89409C097FB3EF49095809570956195E5
S11309D07F4F8F4F9F4F9923A9F0F92F96E9BB279B
S11309E09395F695879577956795B795F111F8CF17
S11309F0FAF4BB0F11F460FF1BC06F5F7F4F8F4F82
S1130A009F4F16C0882311F096E911C0772321F077
S1130A109EE8872F762F05C0662371F096E8862F0F
S1130A2070E060E02AF09A95660F771F881FDAF766
S1130A30880F9695879597F9089597F99F6780E8A9
S1130A4070E060E008959FEF80EC089500240A941C
S1130A501616170618060906089500240A94121695
S1130A601306140605060895092E0394000C11F4C8
S1130A70882352F0BB0F40F4BF2B11F460FF04C075
S1130A806F5F7F4F8F4F9F4F089557FD9058440FCE
S1130A90551F59F05F3F71F04795880F97FB991FD9
S1130AA061F09F3F79F08795089512161306140696
S1130AB0551FF2CF4695F1DF08C016161706180623
S1130AC0991FF1CF86957105610508940895E894FE
S1130AD0BB2766277727CB0197F908950E948105E4
S1130AE00C9434050E94260538F00E942D0520F050
S1130AF0952311F00C941D050C94230511240C94DA
S1130B0068050E94450570F3959FC1F3950F50E069
S1130B10551F629FF001729FBB27F00DB11D639FAB
S1130B20AA27F00DB11DAA1F649F6627B00DA11D51
S1130B30661F829F2227B00DA11D621F739FB00DF7
S1130B40A11D621F839FA00D611D221F749F332767
S1130B50A00D611D231F849F600D211D822F762F00
S1130B606A2F11249F5750409AF0F1F088234AF0DD
S1130B70EE0FFF1FBB1F661F771F881F9150504049
S1130B80A9F79E3F510580F00C941D050C9468054F
S1130B905F3FE4F3983ED4F3869577956795B795D0
S1130BA0F795E7959F5FC1F7FE2B880F911D9695EA
S1130BB0879597F90895EE0FFF1F0590F491E02DA6
S1130BC009940F931F93CF93DF938230910510F410
S1130BD082E090E0E0911501F091160120E030E010
S1130BE0A0E0B0E0309719F1408151810281138176
S1130BF048175907C8F08417950769F4109731F01E
S1130C0012960C93129713961C9327C00093150108
S1130C101093160122C02115310519F0421753070C
S1130C2018F49A01BD01EF01DF01F801DBCF2115B2
S1130C303105F9F0281B390B2430310580F48A8101
S1130C409B816115710521F0FB019383828304C0AC
S1130C509093160180931501FE01329644C0FE0163
S1130C60E20FF31F81939193225031093983288332
S1130C703AC02091130130911401232B41F42091A7
S1130C800201309103013093140120931301209148
S1130C900001309101012115310541F42DB73EB712
S1130CA04091040150910501241B350BE09113017F
S1130CB0F0911401E217F307A0F42E1B3F0B281741
S1130CC0390778F0AC014E5F5F4F2417350748F0C1
S1130CD04E0F5F1F5093140140931301819391931E
S1130CE002C0E0E0F0E0CF01DF91CF911F910F91BE
S1130CF00895CF93DF93009709F481C0FC013297E4
S1130D0013821282A0911501B0911601109781F4FB
S1130D1020813181820F931F20911301309114019E
S1130D202817390751F5F0931401E093130167C0B4
S1130D30ED0120E030E0CE17DF0740F44A815B810B
S1130D409E0141155105F1F0EA01F5CFD383C28329
S1130D5040815181840F951FC817D90759F48881A0
S1130D609981840F951F0296918380838A819B8148
S1130D70938382832115310529F4F0931601E093BE
S1130D8015013DC0E901FB83EA8349915991C40FE0
S1130D90D51FEC17FD0761F480819181840F951FA5
S1130DA00296E90199838883828193819B838A8354
S1130DB0E0E0F0E012968D919C911397009719F062
S1130DC0FD01DC01F7CF8D919C9111979D012E5F60
S1130DD03F4F820F931F2091130130911401281764
S1130DE0390769F4309729F410921601109215010D
S1130DF002C013821282B0931401A0931301DF91F5
S1130E00CF910895DC0101C06D9341505040E0F74B
S1090E100895F894FFCFE1
S1090E160000170120009A
S9030000FC
